:100000000A128A11F82FFF1B0D2883137F188317FC
:100010000008840A0319FF0A080000308A00040857
:10002000840A82070034013400340A340034643412
:100030000034E83403341034273441344434433436
:0800400000342534753400344E
:10093A00F000700883120313930008008316031350
:10094A00141CA82CA92CA32C08000A128A11A3246F
:10095A000A128A11831203131308080000300A12BC
:10096A008A11D6240A128A1101300A128A11D6244F
:10097A000A128A110800F300831603138712731DE3
:10098A00C72CC82CCC2C720894008715D02C700860
:10099A00720494008711730871048312031394007C
:1009AA000800F30083120313081173080A128A114C
:1009BA00F0240A128A118312031388150630F200F2
:1009CA003030F100F10BE72CF20BE72C0000831218
:1009DA00031388110800F000701CF42CF52CF92C74
:1009EA00831203130816FC2C831203130812F01C3B
:1009FA00FF2C002D022D8816032D8812701D062D3E
:100A0A00072D092D08170A2D0813F01D0D2D0E2D7F
:100A1A00102D8817112D88130800831603178801D3
:100A2A008901831603138601880183120313860141
:100A3A0088018316031307118312031307158316FC
:100A4A0003130F088F3960388F000F14F001F1017A
:100A5A00F20120300A128A11C0240A128A110800EF
:100A6A00F40074080F39F2007408F039F3008312A5
:100A7A00031308157308F10004300310F10CFF3E4C
:100A8A00031D422D71080A128A11F0240A128A11D2
:100A9A008312031388150D30F100F10B522D8312C6
:100AAA000313881172080A128A11F0240A128A1191
:100ABA008312031388150D30F100F10B622D831296
:100ACA000313881108007808790403196D2D6E2D17
:100ADA009D2DFD01FD0A7C2D01300310F80DF90D45
:100AEA00FF3E031D722D0130FC007C08FD07F91F33
:100AFA007F2D802D712D79087B02031D862D7808A4
:100B0A007A02031C892D8A2D902D7808FA02790819
:100B1A00031CFB03FB0201300310F90CF80CFF3E27
:100B2A00031D912D0130FD02031D9C2D9D2D802D4D
:100B3A007B08F9007A08F8000800FA01FB01C72DC2
:100B4A007A087507F8007608F7000318F70AFA1FFB
:100B5A00AF2DF7037708F900790883120313FF0012
:100B6A00780884000A128A1103200A128A110A12CA
:100B7A008A1135250A128A110130FA070318FB0A6D
:100B8A000030FB077A087507F8007608F7000318A3
:100B9A00F70AFA1FD12DF7037708F90079088312AB
:100BAA000313FF00780884000A128A1103200A122C
:100BBA008A11003A031DE22DE32DA52D0800F50147
:100BCA00F601700871040319EB2DEC2D232EF701A1
:100BDA00F70AFA2D01300310F00DF10DFF3E031D47
:100BEA00F02D0130F4007408F707F11FFD2DFE2DDA
:100BFA00EF2D01300310F50DF60DFF3E031DFF2DFD
:100C0A0071087302031D0B2E70087202031C0E2E4C
:100C1A000F2E162E7008F2027108031CF303F3025A
:100C2A00751401300310F10CF00CFF3E031D172E52
:100C3A000130F702031D222E232EFE2D7608F10025
:100C4A007508F0000800F6007603031D2D2E2E2EDF
:100C5A004B2E74087F3EF9007908F5000430031022
:100C6A00F50CFF3E031D342E7508F70079080F397D
:100C7A00F80077080A128A11D6240A128A1178080B
:100C8A000A128A11D6240A128A116D2E02307606A9
:100C9A00031D502E512E6D2E7408BF3EF90079089F
:100CAA00F50004300310F50CFF3E031D572E75089E
:100CBA00F70079080F39F80077080A128A11D62442
:100CCA000A128A1178080A128A11D6240A128A117B
:100CDA00080000300A128A11F0240A128A111A3006
:100CEA00F500F830F400F40B782EF50B782E00009E
:100CFA0003300A128A11D6240A128A110730F50023
:100D0A007D30F400F40B872EF50B872E03300A1280
:100D1A008A11D6240A128A110F30F5004730F400DE
:100D2A00F40B952EF50B952E9A2E03300A128A1182
:100D3A00D6240A128A1102300A128A11D6240A12F9
:100D4A008A1102300A128A11D6240A128A1108302C
:100D5A000A128A11D6240A128A1100300A128A113A
:100D6A00D6240A128A110C300A128A11D6240A12BF
:100D7A008A1100300A128A11D6240A128A11063000
:100D8A000A128A11D6240A128A1108000A128A1132
:100D9A0012250A128A110A128A116E260A128A1159
:100DAA00831203130711C73083120313AD00DD2E1C
:100DBA00AD0BDC2EE02E8312031308080A128A11E7
:100DCA009D240A128A110A128A11AA240A128A1165
:100DDA0083120313AF00C73083120313AD00F52E3D
:100DEA00AD0BF42EF82E8312031307152F08860075
:100DFA000F30A0002F08AD00AE012D08A1002E086B
:100E0A00A20030300A128A1137270A128A110A12EE
:100E1A008A11B3240A128A11F401F40A01300A125F
:100E2A008A1128260A128A110B30F5008030F60042
:100E3A000A128A11A2250A128A11F401F40A02304E
:100E4A000A128A1128260A128A113030F500003057
:100E5A00F6000A128A11A2250A128A11D52E0A123E
:100E6A008A11002883120313AB002130A700E32F55
:100E7A0025302C060319422F432F4D2F2B088400AF
:100E8A002C08831380000130A3002308AB07E32F4B
:100E9A00A601542FC030A3002308A6046E2F0130E8
:100EAA00A007FF30200784000A128A110D200A12B7
:100EBA008A11AC00A300A4012408003A0319662F82
:100ECA00E32F2308003A0319F32F753A03194F2F1A
:100EDA00E32F2708840083130008A800840A000867
:100EEA00A9000230A3002308A707AC01AC0A2C080A
:100EFA00A3002307013E84000A128A110D200A1258
:100F0A008A11A4000A128A110D200A128A11A50058
:100F1A0025082902031D932F240828020318962F57
:100F2A00972F982FA22F0130A3002308AC07053072
:100F3A002C06031DA12FA22F7C2F2C08AA00DA2F22
:100F4A000A30F8000030F9002A08A3002307013EFE
:100F5A0084000A128A110D200A128A11F0000A125C
:100F6A008A110D200A128A11F1002908F3002808B3
:100F7A00F2000A128A11E4250A128A117108FB008A
:100F8A007008FA000A128A1168250A128A1178086A
:100F9A00303E83120313AC002B0884002C08831301
:100FAA0080000130A3002308AB07FF30A300230809
:100FBA00AA072A0A031DE22FE32FA52F0130A00753
:100FCA00FF30200784000A128A110D200A128A11A2
:100FDA00AC002C08031DF22FF32F3D2F2B088400A1
:100FEA0083138001080083120313AF01B001830148
:060FFA000A128A11CB2E41
:08400000FF3FFF3FFF3FFF3FC0
:04400E00D620FF3F7A
:00000001FF
