:100000000A128A11EC2F00308A000408840A820741
:1000100000344134443443342034203420344134D7
:1000200044344334323420342034203443344F3485
:060030004E34543400348C
:10077000F00070088312031393000800831603131C
:10078000141CC32BC42BBE2B08000A128A11BE23D3
:100790000A128A11831203131308080000300A1288
:1007A0008A11F1230A128A1101300A128A11F123E7
:1007B0000A128A110800F300831603138712731DAF
:1007C000E22BE32BE72B720894008715EB2B7008C4
:1007D0007204940087117308710483120313940048
:1007E0000800F30083120313081173080A128A1118
:1007F0000B240A128A118312031388150630F200A3
:100800003030F100F10B022CF20B022C00008312AD
:10081000031388110800F000701C0F2C102C142CEE
:10082000831203130816172C831203130812F01CEB
:100830001A2C1B2C1D2C88161E2C8812701D212C86
:10084000222C242C0817252C0813F01D282C292CC9
:100850002B2C88172C2C881308008316031788016B
:10086000890183160313860188018312031386010D
:1008700088018316031307118710831203130715CA
:10088000831603130F088F3960388F000F14F0019F
:10089000F101F20120300A128A11DB230A128A11B7
:1008A0000800F700F501F601682C75087707840049
:1008B0000A128A1103200A128A110A128A11762456
:1008C0000A128A110130F5070318F60A0030F607FC
:1008D0007508770784000A128A1103200A128A1108
:1008E000003A031D742C752C552C0800F400740874
:1008F0000F39F2007408F039F3008312031308155E
:100900007308F10004300310F10CFF3E031D832C2B
:1009100071080A128A110B240A128A118312031316
:1009200088150D30F100F10B932C831203138811FD
:1009300072080A128A110B240A128A1183120313F5
:1009400088150D30F100F10BA32C831203138811CD
:100950000800F6007603031DAE2CAF2CCC2C7408D7
:100960007F3EF9007908F50004300310F50CFF3ED6
:10097000031DB52C7508F70079080F39F8007708C2
:100980000A128A11F1230A128A1178080A128A11AE
:10099000F1230A128A11EE2C02307606031DD12CA7
:1009A000D22CEE2C7408BF3EF9007908F500043013
:1009B0000310F50CFF3E031DD82C7508F7007908CD
:1009C0000F39F80077080A128A11F1230A128A11E6
:1009D00078080A128A11F1230A128A110800831278
:1009E0000313AF01FC1FF52CF62CFD2CFB09FC09B1
:1009F000FB0A0319FC0AAF01AF0AFA1F002D012DF3
:100A0000062DF909FA09F90A0319FA0A79087A048C
:100A100003190B2D0C2D3B2DAE01AE0A1A2D013002
:100A20000310F90DFA0DFF3E031D102D0130FD00DE
:100A30007D08AE07FA1F1D2D1E2D0F2D7A087C0292
:100A4000031D242D79087B02031C272D282D2E2D14
:100A50007908FB027A08031CFC03FC020130031036
:100A6000FA0CF90CFF3E031D2F2D0130AE02031DC1
:100A70003A2D3B2D1E2D2F0803193F2D402D452DBE
:100A8000FB09FC09FB0A0319FC0A7C08FA007B0835
:100A9000F900080000300A128A110B240A128A1188
:100AA0001A30F500F830F400F40B542DF50B542DEA
:100AB000000003300A128A11F1230A128A1107304A
:100AC000F5007D30F400F40B632DF50B632D03303E
:100AD0000A128A11F1230A128A110F30F5004730E9
:100AE000F400F40B712DF50B712D762D03300A12E5
:100AF0008A11F1230A128A1102300A128A11F12393
:100B00000A128A1102300A128A11F1230A128A117A
:100B100008300A128A11F1230A128A1100300A12CF
:100B20008A11F1230A128A110C300A128A11F12358
:100B30000A128A1100300A128A11F1230A128A114C
:100B400006300A128A11F1230A128A110800F601EE
:100B5000F11FAB2DAC2DB32DF009F109F00A0319EB
:100B6000F10AF601F60AF31FB62DB72DC02DF209D2
:100B7000F309F20A0319F30A0130F4007408F606C7
:100B8000F701F801700871040319C72DC82DFF2D56
:100B9000F501F50AD62D01300310F00DF10DFF3EE1
:100BA000031DCC2D0130F4007408F507F11FD92D79
:100BB000DA2DCB2D01300310F70DF80DFF3E031D8C
:100BC000DB2D71087302031DE72D70087202031CF0
:100BD000EA2DEB2DF22D7008F2027108031CF303CD
:100BE000F302771401300310F10CF00CFF3E031DEB
:100BF000F32D0130F502031DFE2DFF2DDA2D7608B1
:100C00000319032E042E092EF709F809F70A031910
:100C1000F80A7808F1007708F00008000A128A1133
:100C20002D240A128A110A128A114A250A128A11DF
:100C30000A128A11CE230A128A11F401F40A013031
:100C40000A128A11A9240A128A1101300A128A1181
:100C500051240A128A11831203130711C730831219
:100C60000313B000332EB00B322E362E8312031333
:100C700008080A128A11B8230A128A110A128A1164
:100C8000C5230A128A1183120313AD00C7308312E1
:100C90000313B0004B2EB00B4A2E4E2E83120313BB
:100CA00007156430F0000030F1002D08B000B101EC
:100CB0003008F2003108F3000A128A11A7250A123F
:100CC0008A11700883120313A8000A30F90000305B
:100CD000FA000A30F0000030F1002D08B000B10138
:100CE0003008F2003108F3000A128A11A7250A120F
:100CF0008A117108FC007008FB000A128A11EF24A7
:100D00000A128A11790883120313A7000A30F90026
:100D10000030FA002D08B000B1013008FB003108A6
:100D2000FC000A128A11EF240A128A117908831230
:100D30000313A600F401F40A02300A128A11A9244E
:100D40000A128A11831203132808303E0A128A11EC
:100D500076240A128A11831203132708303E0A12DE
:100D60008A1176240A128A11831203132608303E50
:100D70000A128A1176240A128A1183120313871029
:100D8000C73083120313B000C52EB00BC42EC82E7B
:100D90008312031308080A128A11B8230A128A114F
:100DA0000A128A11C5230A128A1183120313AA0098
:100DB00073302A06031DDD2EDE2EED2E08080A12E2
:100DC0008A11B8230A128A110A128A11C5230A123B
:100DD0008A1183120313AC00012F6E302A06031D03
:100DE000F22EF32E012F08080A128A11B8230A12D4
:100DF0008A110A128A11C5230A128A118312031357
:100E0000AB00C73083120313B000062FB00B052FC1
:100E1000092F8312031387142D0886006430F00015
:100E20000030F1002C08B000B1013008F2003108A8
:100E3000F3000A128A11A7250A128A117008831278
:100E40000313A5000A30F9000030FA000A30F00060
:100E50000030F1002C08B000B1013008F200310878
:100E6000F3000A128A11A7250A128A117108FC00E0
:100E70007008FB000A128A11EF240A128A117908FD
:100E800083120313A4000A30F9000030FA002C0882
:100E9000B000B1013008FB003108FC000A128A11D1
:100EA000EF240A128A11790883120313A300073072
:100EB000F40002300A128A11A9240A128A1183123C
:100EC00003132508303E0A128A1176240A128A1169
:100ED000831203132408303E0A128A1176240A1260
:100EE0008A11831203132308303E0A128A117624D2
:100EF0000A128A116430F0000030F10083120313EB
:100F00002B08B000B1013008F2003108F3000A12DA
:100F10008A11A7250A128A11700883120313A200EE
:100F20000A30F9000030FA000A30F0000030F10019
:100F30002B08B000B1013008F2003108F3000A12AA
:100F40008A11A7250A128A117108FC007008FB009B
:100F50000A128A11EF240A128A11790883120313E4
:100F6000A1000A30F9000030FA002B08B000B101EE
:100F70003008FB003108FC000A128A11EF240A1223
:100F80008A11790883120313A0000E30F400023096
:100F90000A128A11A9240A128A1183120313220841
:100FA000303E0A128A1176240A128A118312031320
:100FB0002108303E0A128A1176240A128A118312FD
:100FC00003132008303E0A128A1176240A128A116D
:100FD0002B2E0A128A11002883120313A001A101EB
:100FE000A201A301A401A501A601A701A801A901CD
:100FF000AA01AB01AC01AD0183010A128A110E2EC8
:08400000FF3FFF3FFF3FFF3FC0
:04400E00D620FF3F7A
:00000001FF
