:100000000A128A11F52F00308A000408840A820738
:0A001000003441344434433400341A
:1009D600F0007008831203139300080083160313B4
:1009E600141CF62CF72CF12C08000A128A11F1249B
:1009F6000A128A11831203131308080000300A1220
:100A06008A1124250A128A1101300A128A11242514
:100A16000A128A110800F300831603138712731D46
:100A2600152D162D1A2D7208940087151E2D700887
:100A360072049400871173087104831203139400DF
:100A46000800F30083120313081173080A128A11AF
:100A56003E250A128A118312031388150630F20006
:100A66003030F100F10B352DF20B352D00008312DD
:100A7600031388110800F000701C422D432D472DEA
:100A86008312031308164A2D831203130812F01C4F
:100A96004D2D4E2D502D8816512D8812701D542D1A
:100AA600552D572D0817582D0813F01D5B2D5C2D5D
:100AB6005E2D88175F2D881308008316031788019B
:100AC60089018316031386018801831203138601A5
:100AD6008801831603130711831203130715831660
:100AE60003130F088F3960388F000F14F001F101DE
:100AF600F20120300A128A110E250A128A11080004
:100B0600F700F501F6019A2D7508770784000A1299
:100B16008A1103200A128A110A128A11A8250A12BA
:100B26008A110130F5070318F60A0030F607750832
:100B3600770784000A128A1103200A128A11003AE2
:100B4600031DA62DA72D872D0800F40074080F3964
:100B5600F2007408F039F3008312031308157308C2
:100B6600F10004300310F10CFF3E031DB52D710892
:100B76000A128A113E250A128A1183120313881556
:100B86000D30F100F10BC52D831203138811720885
:100B96000A128A113E250A128A1183120313881536
:100BA6000D30F100F10BD52D8312031388110800C7
:100BB600F6007603031DE02DE12DFE2D74087F3E21
:100BC600F9007908F50004300310F50CFF3E031D0B
:100BD600E72D7508F70079080F39F80077080A122B
:100BE6008A1124250A128A1178080A128A112425E4
:100BF6000A128A11202E02307606031D032E042EB9
:100C0600202E7408BF3EF9007908F5000430031061
:100C1600F50CFF3E031D0A2E7508F70079080F39FB
:100C2600F80077080A128A1124250A128A11780810
:100C36000A128A1124250A128A1108008312031344
:100C4600A601FC1F272E282E2F2EFB09FC09FB0AC6
:100C56000319FC0AA601A60AFA1F322E332E382ED5
:100C6600F909FA09F90A0319FA0A79087A0403193B
:100C76003D2E3E2E6D2EA501A50A4C2E01300310E9
:100C8600F90DFA0DFF3E031D422E0130FD007D08D1
:100C9600A507FA1F4F2E502E412E7A087C02031DFF
:100CA600562E79087B02031C592E5A2E602E79087F
:100CB600FB027A08031CFC03FC0201300310FA0C49
:100CC600F90CFF3E031D612E0130A502031D6C2E9B
:100CD6006D2E502E26080319712E722E772EFB09C3
:100CE600FC09FB0A0319FC0A7C08FA007B08F900D8
:100CF600080000300A128A113E250A128A111A309B
:100D0600F500F830F400F40B862EF50B862E000065
:100D160003300A128A1124250A128A110730F500B7
:100D26007D30F400F40B952EF50B952E03300A1248
:100D36008A1124250A128A110F30F5004730F40073
:100D4600F40BA32EF50BA32EA82E03300A128A113C
:100D560024250A128A1102300A128A1124250A123F
:100D66008A1102300A128A1124250A128A110830C1
:100D76000A128A1124250A128A1100300A128A11CF
:100D860024250A128A110C300A128A1124250A1205
:100D96008A1100300A128A1124250A128A11063095
:100DA6000A128A1124250A128A110800F601F11F77
:100DB600DD2EDE2EE52EF009F109F00A0319F10AFF
:100DC600F601F60AF31FE82EE92EF22EF209F309D0
:100DD600F20A0319F30A0130F4007408F606F70163
:100DE600F801700871040319F92EFA2E312FF50156
:100DF600F50A082F01300310F00DF10DFF3E031D1B
:100E0600FE2E0130F4007408F507F11F0B2F0C2F8E
:100E1600FD2E01300310F70DF80DFF3E031D0D2FBB
:100E260071087302031D192F70087202031C1C2F10
:100E36001D2F242F7008F2027108031CF303F3021E
:100E4600771401300310F10CF00CFF3E031D252F23
:100E56000130F502031D302F312F0C2F76080319B0
:100E6600352F362F3B2FF709F809F70A0319F80A29
:100E76007808F1007708F00008000A128A11602548
:100E86000A128A110A128A117C260A128A110A1279
:100E96008A1101250A128A11F401F40A01300A1294
:100EA6008A11DB250A128A1101300A128A1183255A
:100EB6000A128A11831203130711C7308312031310
:100EC600A700652FA70B642F682F8312031308084A
:100ED6000A128A11EB240A128A110A128A11F824BC
:100EE6000A128A1183120313A400C7308312031354
:100EF600A7007D2FA70B7C2F802F831203130715C6
:100F0600240886006430F0000030F1002408A700B1
:100F1600A8012708F2002808F3000A128A11D92628
:100F26000A128A11700883120313A2000A30F9000C
:100F36000030FA000A30F0000030F1002408A70063
:100F4600A8012708F2002808F3000A128A11D926F8
:100F56000A128A117108FC007008FB000A128A1135
:100F660021260A128A11790883120313A1000A3076
:100F7600F9000030FA002408A700A8012708FB00A2
:100F86002808FC000A128A1121260A128A117908F9
:100F960083120313A000F401F40A02300A128A1124
:100FA600DB250A128A11831203132208303E0A1225
:100FB6008A11A8250A128A11831203132108303ECA
:100FC6000A128A11A8250A128A118312031320080D
:100FD600303E0A128A11A8250A128A115D2F0A12BA
:100FE6008A11002883120313A001A101A201A30103
:0A0FF600A40183010A128A11402FA2
:08400000FF3FFF3FFF3FFF3FC0
:04400E00D620FF3F7A
:00000001FF
