:100000000A128A11F12F00308A000408840A82073C
:1000100000344134443443342034203420344134D7
:0800200044344334323400344F
:1008A800F0007008831203139300080083160313E3
:1008B800141C5F2C602C5A2C08000A128A115A2426
:1008C8000A128A11831203131308080000300A124F
:1008D8008A118D240A128A1101300A128A118D2474
:1008E8000A128A110800F300831603138712731D76
:1008F8007E2C7F2C832C720894008715872C700817
:10090800720494008711730871048312031394000E
:100918000800F30083120313081173080A128A11DE
:10092800A7240A128A118312031388150630F200CD
:100938003030F100F10B9E2CF20B9E2C000083123C
:10094800031388110800F000701CAB2CAC2CB02CE1
:10095800831203130816B32C831203130812F01C16
:10096800B62CB72CB92C8816BA2C8812701DBD2C41
:10097800BE2CC02C0817C12C0813F01DC42CC52C84
:10098800C72C8817C82C88130800831603178801FA
:1009980089018316031386018801831203138601D4
:1009A8008801831603130711871083120313071591
:1009B800831603130F088F3960388F000F14F00166
:1009C800F101F20120300A128A1177240A128A11E1
:1009D8000800F700F501F601042D75087707840073
:1009E8000A128A1103200A128A110A128A11122580
:1009F8000A128A110130F5070318F60A0030F607C3
:100A08007508770784000A128A1103200A128A11CE
:100A1800003A031D102D112DF12C0800F400740864
:100A28000F39F2007408F039F30083120313081524
:100A38007308F10004300310F10CFF3E031D1F2D55
:100A480071080A128A11A7240A128A118312031341
:100A580088150D30F100F10B2F2D83120313881127
:100A680072080A128A11A7240A128A118312031320
:100A780088150D30F100F10B3F2D831203138811F7
:100A88000800F6007603031D4A2D4B2D682D7408C7
:100A98007F3EF9007908F50004300310F50CFF3E9D
:100AA800031D512D7508F70079080F39F8007708EC
:100AB8000A128A118D240A128A1178080A128A11D8
:100AC8008D240A128A118A2D02307606031D6D2D97
:100AD8006E2D8A2D7408BF3EF9007908F5000430A0
:100AE8000310F50CFF3E031D742D7508F7007908F7
:100AF8000F39F80077080A128A118D240A128A1110
:100B080078080A128A118D240A128A1108008312A1
:100B18000313AA01FC1F912D922D992DFB09FC09A5
:100B2800FB0A0319FC0AAA01AA0AFA1F9C2D9D2D8B
:100B3800A22DF909FA09F90A0319FA0A79087A04B7
:100B48000319A72DA82DD72DA901A90AB62D013063
:100B58000310F90DFA0DFF3E031DAC2D0130FD0009
:100B68007D08A907FA1FB92DBA2DAB2D7A087C028A
:100B7800031DC02D79087B02031CC32DC42DCA2D6B
:100B88007908FB027A08031CFC03FC0201300310FD
:100B9800FA0CF90CFF3E031DCB2D0130A902031DF1
:100BA800D62DD72DBA2D2A080319DB2DDC2DE12DE2
:100BB800FB09FC09FB0A0319FC0A7C08FA007B08FC
:100BC800F900080000300A128A11A7240A128A11B3
:100BD8001A30F500F830F400F40BF02DF50BF02D79
:100BE800000003300A128A118D240A128A11073074
:100BF800F5007D30F400F40BFF2DF50BFF2D0330CD
:100C08000A128A118D240A128A110F30F500473012
:100C1800F400F40B0D2EF50B0D2E122E03300A12D4
:100C28008A118D240A128A1102300A128A118D241F
:100C38000A128A1102300A128A118D240A128A11A4
:100C480008300A128A118D240A128A1100300A12F9
:100C58008A118D240A128A110C300A128A118D24E5
:100C68000A128A1100300A128A118D240A128A1176
:100C780006300A128A118D240A128A110800F60118
:100C8800F11F472E482E4F2EF009F109F00A0319DB
:100C9800F10AF601F60AF31F522E532E5C2EF209C2
:100CA800F309F20A0319F30A0130F4007408F6068E
:100CB800F701F801700871040319632E642E9B2E46
:100CC800F501F50A722E01300310F00DF10DFF3E0B
:100CD800031D682E0130F4007408F507F11F752E06
:100CE800762E672E01300310F70DF80DFF3E031D19
:100CF800772E71087302031D832E70087202031C7D
:100D0800862E872E8E2E7008F2027108031CF303BC
:100D1800F302771401300310F10CF00CFF3E031DB1
:100D28008F2E0130F502031D9A2E9B2E762E760803
:100D380003199F2EA02EA52EF709F809F70A031903
:100D4800F80A7808F1007708F00008000A128A11FA
:100D5800C9240A128A110A128A11E6250A128A116E
:100D68000A128A116A240A128A11F401F40A01305B
:100D78000A128A1145250A128A1101300A128A11AB
:100D8800ED240A128A11831203130711C730831244
:100D98000313AB00CF2EAB0BCE2ED22E8312031330
:100DA80008080A128A1154240A128A110A128A118E
:100DB80061240A128A1183120313A800C730831210
:100DC8000313AB00E72EAB0BE62EEA2E83120313B8
:100DD80007158710C73083120313AB00F32EAB0B34
:100DE800F22EF62E8312031308080A128A115424CD
:100DF8000A128A110A128A1161240A128A118312AC
:100E08000313A700C73083120313AB000B2FAB0BE0
:100E18000A2F0E2F831203138714280886006430C4
:100E2800F0000030F1002808AB00AC012B08F200FC
:100E38002C08F3000A128A1143260A128A11700834
:100E480083120313A5000A30F9000030FA000A30B3
:100E5800F0000030F1002808AB00AC012B08F200CC
:100E68002C08F3000A128A1143260A128A11710803
:100E7800FC007008FB000A128A118B250A128A11DD
:100E8800790883120313A4000A30F9000030FA002D
:100E98002808AB00AC012B08FB002C08FC000A1248
:100EA8008A118B250A128A11790883120313A30069
:100EB800F401F40A02300A128A1145250A128A112D
:100EC800831203132508303E0A128A1112250A12CA
:100ED8008A11831203132408303E0A128A1112253C
:100EE8000A128A11831203132308303E0A128A1148
:100EF80012250A128A116430F0000030F1008312C2
:100F080003132708AB00AC012B08F2002C08F300F0
:100F18000A128A1143260A128A11700883120313CF
:100F2800A2000A30F9000030FA000A30F000003060
:100F3800F1002708AB00AC012B08F2002C08F300E5
:100F48000A128A1143260A128A117108FC007008D5
:100F5800FB000A128A118B250A128A11790883125A
:100F68000313A1000A30F9000030FA002708AB008B
:100F7800AC012B08FB002C08FC000A128A118B25F7
:100F88000A128A11790883120313A0000730F400AB
:100F980002300A128A1145250A128A118312031394
:100FA8002208303E0A128A1112250A128A11831267
:100FB80003132108303E0A128A1112250A128A11D7
:100FC800831203132008303E0A128A1112250A12CE
:100FD8008A11C72E0A128A11002883120313A0014E
:100FE800A101A201A301A401A501A601A701A801CD
:080FF80083010A128A11AA2EDE
:08400000FF3FFF3FFF3FFF3FC0
:04400E00D620FF3F7A
:00000001FF
