:060000000A128A110C280F
:10000800FE00030EF1000A08F2000A128A11A7285E
:100018000A128A110F28F701F801F90183010A125F
:100028008A113F2883160317880189012130831616
:100038000313850086018801831203138501860155
:100048008801831603130F088F3960388F000F1447
:100058008B170B17831203138C11831603138C153C
:100068008516F301F401F50124300A128A11912052
:100078000A128A1108000A128A1116200A128A1115
:100088000A128A117A200A128A110030F300F40049
:100098000A128A115D200A128A117408F80073087E
:1000A800F700770883120313860049280A128A1179
:1000B8000C287308F500F50DF50D831203131F08BE
:1000C8007506C33975069F009F149F186C286D2804
:1000D80069282130F500F50B6F28831203131E08D9
:1000E800F400831603131E08F30008008316031791
:1000F800080801388800831203139F019F131F13F8
:10010800831603139F121F129F17831203131F14C2
:100118002130F300F30B8E280800F6008316031332
:100128008712761D982899289D28750894008715A8
:10013800A128730875049400871176087404831243
:10014800031394000800831203138C1DAC28AD28F8
:10015800B62877080A128A11BD200A128A1183125A
:1001680003138C1172088A00710E8300FE0E7E0E36
:0E0178000900F00070088312031393000800C2
:08400000FF3FFF3FFF3FFF3FC0
:04400E00D620FF3F7A
:00000001FF
