:060000000A128A110C280F
:10000800FE00030EF1000A08F2000A128A117A288B
:100018000A128A110F28F701F801F90183010A125F
:100028008A113E2883160317880189018316031352
:1000380086018801831203138501860188018316CE
:1000480003130F088F3960388F000F148B170B17A5
:10005800831203138C11831603138C15851605144C
:10006800F301F401F50124300A128A11AF200A12B3
:100078008A1108000A128A1116200A128A110A1215
:100088008A1198200A128A110030F300F4000A122B
:100098008A115C200A128A117408F8007308F700A4
:1000A800770883120313860048280A128A110C283D
:1000B8007308F500F50DF50D831203131F08750677
:1000C800C33975069F009F149F186B286C286828F1
:1000D8002130F500F50B6E28831203131E08F50076
:1000E800F6017508F3007608F4000800831203137C
:1000F8008C1D7F28802891280A128A11C5200A128F
:100108008A1183120313880077080A128A11D520EE
:100118000A128A11831203138C1172088A00710E55
:100128008300FE0E7E0E09008316031708080138A7
:100138008800831203139F019F131F138316031351
:100148009F121F129F13831203131F142130F300F1
:10015800F30BAC280800F600831603138712761DEC
:10016800B628B728BB28750894008715BF287308D8
:10017800750494008711760874048312031394009D
:1001880008000A128A11CE200A128A118312031358
:100198001308080083160313141CD328D428CE2868
:0E01A8000800F0007008831203139300080093
:08400000FF3FFF3FFF3FFF3FC0
:04400E00D620FF3F7A
:00000001FF
