:100000000A128A11F72FFF1B0D2883137F188317FD
:100010000008840A0319FF0A080000308A00040857
:10002000840A82070034013400340A340034643412
:100030000034E83403341034273441344434433436
:0A004000003425342E3475340034EA
:10094A0083160313141CAA2CAB2CA52C08000A121C
:10095A008A11A5240A128A118312031313080800A4
:10096A0000300A128A11D8240A128A1101300A1296
:10097A008A11D8240A128A110800F3008316031375
:10098A008712731DC92CCA2CCE2C720894008715A5
:10099A00D22C7008720494008711730871048312B0
:1009AA00031394000800F300831203130811730859
:1009BA000A128A11F2240A128A1183120313881561
:1009CA000630F2003030F100F10BE92CF20BE92C81
:1009DA0000008312031388110800F000701CF62C23
:1009EA00F72CFB2C831203130816FE2C8312031315
:1009FA000812F01C012D022D042D8816052D8812CF
:100A0A00701D082D092D0B2D08170C2D0813F01D2C
:100A1A000F2D102D122D8817132D881308008316F9
:100A2A00031788018901831603138601880183123B
:100A3A000313860188018316031307118312031314
:100A4A000715831603130F088F3960388F000F14A8
:100A5A00F001F101F20120300A128A11C2240A12AD
:100A6A008A110800F40074080F39F2007408F0398A
:100A7A00F3008312031308157308F10004300310FE
:100A8A00F10CFF3E031D442D71080A128A11F2244B
:100A9A000A128A118312031388150D30F100F10B23
:100AAA00542D83120313881172080A128A11F22430
:100ABA000A128A118312031388150D30F100F10B03
:100ACA00642D831203138811080078087904031926
:100ADA006F2D702D9F2DFD01FD0A7E2D0130031013
:100AEA00F80DF90DFF3E031D742D0130FC007C0842
:100AFA00FD07F91F812D822D732D79087B02031DB5
:100B0A00882D78087A02031C8B2D8C2D922D78085B
:100B1A00FA027908031CFB03FB0201300310F90CEB
:100B2A00F80CFF3E031D932D0130FD02031D9E2D7F
:100B3A009F2D822D7B08F9007A08F8000800FA0137
:100B4A00FB01C92D7A087507F8007608F700031823
:100B5A00F70AFA1FB12DF7037708F900790883120B
:100B6A000313FF00780884000A128A1103200A126C
:100B7A008A110A128A1137250A128A110130FA07D4
:100B8A000318FB0A0030FB077A087507F800760895
:100B9A00F7000318F70AFA1FD32DF7037708F900AD
:100BAA00790883120313FF00780884000A128A1155
:100BBA0003200A128A11003A031DE42DE52DA72D00
:100BCA000800F501F601700871040319ED2DEE2DE8
:100BDA00252EF701F70AFC2D01300310F00DF10D57
:100BEA00FF3E031DF22D0130F4007408F707F11FD0
:100BFA00FF2D002EF12D01300310F50DF60DFF3EED
:100C0A00031D012E71087302031D0D2E7008720256
:100C1A00031C102E112E182E7008F2027108031CE4
:100C2A00F303F302751401300310F10CF00CFF3ECC
:100C3A00031D192E0130F702031D242E252E002E26
:100C4A007608F1007508F0000800F6007603031D27
:100C5A002F2E302E4D2E74087F3EF9007908F500AC
:100C6A0004300310F50CFF3E031D362E7508F700FD
:100C7A0079080F39F80077080A128A11D8240A125B
:100C8A008A1178080A128A11D8240A128A116F2E38
:100C9A0002307606031D522E532E6F2E7408BF3E65
:100CAA00F9007908F50004300310F50CFF3E031D26
:100CBA00592E7508F70079080F39F80077080A12D3
:100CCA008A11D8240A128A1178080A128A11D82499
:100CDA000A128A11080000300A128A11F2240A1232
:100CEA008A111A30F500F830F400F40B7A2EF50B5D
:100CFA007A2E000003300A128A11D8240A128A11A5
:100D0A000730F5007D30F400F40B892EF50B892E9F
:100D1A0003300A128A11D8240A128A110F30F500F8
:100D2A004730F400F40B972EF50B972E9C2E0330C8
:100D3A000A128A11D8240A128A1102300A128A1156
:100D4A00D8240A128A1102300A128A11D8240A12E5
:100D5A008A1108300A128A11D8240A128A1100301C
:100D6A000A128A11D8240A128A110C300A128A111C
:100D7A00D8240A128A1100300A128A11D8240A12B7
:100D8A008A1106300A128A11D8240A128A11080016
:100D9A000A128A1114250A128A110A128A11702655
:100DAA000A128A11831203130711C730831203131D
:100DBA00AD00DF2EAD0BDE2EE22E0A128A11AC2414
:100DCA000A128A11831203138600C730831203138F
:100DDA00AD00EF2EAD0BEE2EF22E83120313071584
:100DEA000030A0000030A1000F30A2003030A30074
:100DFA000A128A112D270A128A110A128A11B52497
:100E0A000A128A11F401F40A01300A128A112A26F6
:100E1A000A128A110B30F5008030F6000A128A1184
:100E2A00A4250A128A11F401F40A02300A128A115C
:100E3A002A260A128A113030F5000030F6000A120A
:100E4A008A11A4250A128A11D72E0A128A11002899
:100E5A00233083120313A800E02F25302C06031930
:100E6A00372F382F462F200884008317211C83131D
:100E7A002C0880000130A0070318A10A0030A1073E
:100E8A00E02FA7014D2FC030A4002408A704672F24
:100E9A000130A207FF30220784000A128A110D20AE
:100EAA000A128A11AC00A400A5012508003A031908
:100EBA005F2FE02F2408003A0319F02F753A03191F
:100ECA00482FE02F2808840083130008A900840A09
:100EDA000008AA000230A4002408A807AC01AC0A42
:100EEA002C08A4002407013E84000A128A110D204E
:100EFA000A128A11A5000A128A110D200A128A11F1
:100F0A00A60026082A02031D8C2F25082902031889
:100F1A008F2F902F912F9B2F0130A4002408AC070C
:100F2A0005302C06031D9A2F9B2F752F2C08AB001A
:100F3A00D72F0A30F8000030F9002B08A400240744
:100F4A00013E84000A128A110D200A128A11F00049
:100F5A000A128A110D200A128A11F1002A08F300D6
:100F6A002908F2000A128A11E6250A128A11710862
:100F7A00FB007008FA000A128A116A250A128A11FD
:100F8A007808303E83120313AC00200884008317CC
:100F9A00211C83132C0880000130A0070318A10A22
:100FAA000030A107FF30A4002408AB072B0A031D59
:100FBA00DF2FE02F9E2F0130A207FF302207840087
:100FCA000A128A110D200A128A11AC002C08031D7C
:100FDA00EF2FF02F322F200884008317211C831350
:100FEA008001080083120313AE01AF01B00183012F
:060FFA000A128A11CD2E3F
:08400000FF3FFF3FFF3FFF3FC0
:04400E00D620FF3F7A
:00000001FF
