:100000000A128A11FA2FFF1B0D2883137F188317FA
:100010000008840A0319FF0A080000308A00040857
:10002000840A820700344134443443340034253494
:060030002E3444340034BC
:100BBE0083160313141CE42DE52DDF2D08000A12F5
:100BCE008A11DF250A128A118312031313080800F3
:100BDE0000300A128A1112260A128A1101300A12E4
:100BEE008A1112260A128A110800F30083160313C3
:100BFE008712731D032E042E082E7208940087157B
:100C0E000C2E7008720494008711730871048312FD
:100C1E00031394000800F3008312031308117308E2
:100C2E000A128A114B260A128A118312031388158F
:100C3E000630F2003030F100F10B232EF20B232E92
:100C4E00000083120313881108008316031788010E
:100C5E00890183160313071186018801831203137A
:100C6E00860188010715831603130F088F39603824
:100C7E008F000F14F001F101F20120300A128A11D7
:100C8E00FC250A128A110800F000701C4F2E502EFF
:100C9E00542E831203130816572E831203130812B1
:100CAE00F01C5A2E5B2E5D2E88165E2E8812701D3D
:100CBE00612E622E642E0817652E0813F01D682E05
:100CCE00692E6B2E88176C2E881308007330F50072
:100CDE007D2E700884008317711C831376088000A4
:100CEE000130F0070318F10A0030F1070130F20766
:100CFE00FF30720784000A128A110D200A128A111F
:100D0E00F6007608031D8C2E8D2E702E7008840032
:100D1E008317711C831380010800F701F801AF2EB1
:100D2E0077087507840078080318780A7607FF009D
:100D3E000A128A1103200A128A110A128A11C42673
:100D4E000A128A110130F7070318F80A0030F80763
:100D5E0077087507840078080318780A76078312D7
:100D6E000313FF000A128A1103200A128A11003A95
:100D7E00031DC22EC32E972E0800F40074080F39DF
:100D8E00F2007408F039F300831203130815730888
:100D9E00F10004300310F10CFF3E031DD12E71083B
:100DAE000A128A114B260A128A118312031388150E
:100DBE000D30F100F10BE12E83120313881172082E
:100DCE000A128A114B260A128A11831203138815EE
:100DDE000D30F100F10BF12E831203138811080070
:100DEE00F6007603031DFC2EFD2E1A2F74087F3E8F
:100DFE00F9007908F50004300310F50CFF3E031DD1
:100E0E00032F7508F70079080F39F80077080A12D2
:100E1E008A1112260A128A1178080A128A111226CB
:100E2E000A128A113C2F02307606031D1F2F202F27
:100E3E003C2F7408BF3EF9007908F500043003100A
:100E4E00F50CFF3E031D262F7508F70079080F39A4
:100E5E00F80077080A128A1112260A128A117808E7
:100E6E000A128A1112260A128A11080000300A127A
:100E7E008A114B260A128A111A30F500F830F40046
:100E8E00F40B472FF50B472F000003300A128A117F
:100E9E0012260A128A110730F5007D30F400F40B89
:100EAE00562FF50B562F03300A128A1112260A12EC
:100EBE008A110F30F5004730F400F40B642FF50B58
:100ECE00642F692F03300A128A1112260A128A1110
:100EDE0002300A128A1112260A128A1102300A12DE
:100EEE008A1112260A128A1108300A128A11122643
:100EFE000A128A1100300A128A1112260A128A1157
:100F0E000C300A128A1112260A128A1100300A12A5
:100F1E008A1112260A128A1106300A128A11122614
:100F2E000A128A1108000A128A112C260A128A1134
:100F3E000A128A113D270A128A118312031307110E
:100F4E00C730FA00AA2FFA0BA92FAD2FAE2F0A1217
:100F5E008A11E6250A128A11FD00C730FA00B72F52
:100F6E00FA0BB62FBA2FBB2F8312031307157D086A
:100F7E00FA00FB017A08F0007B08F1000530F20060
:100F8E000030F300F4000A128A116D260A128A113B
:100F9E000A128A11EF250A128A11F401F40A01309D
:100FAE000A128A11F7260A128A110130F5008030D2
:100FBE00F6000A128A1194260A128A11F401F40A12
:100FCE0002300A128A11F7260A128A110030F50031
:100FDE000030F6000A128A1194260A128A11A42FE2
:100FEE000A128A110028FC01FD0183010A128A11DE
:020FFE009A2F28
:08400000FF3FFF3FFF3FFF3FC0
:04400E00D620FF3F7A
:00000001FF
