:060000000A128A110C280F
:10000800FE00030EF5000A08F6000A128A111828E5
:100018000A128A110F28F701F801F901FA01FB0108
:1000280083010A128A112529831203138C1D1D28A6
:100038001E287E287B08031D2228232852280030EA
:10004800F000F1000A128A11ED200A128A117108D3
:10005800F8007008F7000A128A1133210A128A116F
:1000680083120313880073300A128A1143210A127B
:100078008A11C730F4004028F40B3F28432844284D
:100088000A128A1133210A128A1183120313880073
:1000980077080A128A1143210A128A117B03031D69
:1000A800562857287B280A128A1133210A128A11E6
:1000B8008312031388006E300A128A1143210A1230
:1000C8008A11C730F4006828F40B67286B286C285D
:1000D8000A128A1133210A128A1183120313880023
:1000E8007A080A128A1143210A128A11FB01831223
:1000F80003138C110B1C8128822895280618852843
:1001080086288D280130F4007408FA07FB01FB0AE1
:10011800942886189028912894280130FA028A2871
:100128000B1076088A00750E8300FE0E7E0E0900FD
:100138008316031788018901033083160313860089
:10014800880183120313850186018801831603132E
:100158000F088F3960388F000F148B170B17831215
:1001680003138C11831603138C158516051481133C
:1001780015149514073096000B108B158B178312E6
:100188000313A001A101A20124300A128A11CF2071
:100198000A128A11080083120313A300831603139B
:1001A800871283120313231DDA28DB28E12822088B
:1001B8008316031394008715E72820082204831662
:1001C8000313940087118312031323082104940056
:1001D80008007008F200F20DF20D831203131F08D5
:1001E8007206C33972069F009F149F18FC28FD28C9
:1001F800F9282130F200F20BFF28831203131E089E
:10020800F200F3017208F0007308F1000800831689
:100218000317080801388800831203139F019F13EE
:100228001F13831603139F121F129F1383120313A6
:100238001F14203083120313A000A00B21290000F3
:1002480008000A128A119C200A128A110A128A11BD
:100258000B210A128A112F290A128A110C280A1254
:100268008A113C210A128A11831203131308080009
:1002780083160313141C412942293C290800F00065
:0A02880070088312031393000800AE
:08400000FF3FFF3FFF3FFF3FC0
:04400E00D620FF3F7A
:00000001FF
